{
  "_format": "hh-sol-artifact-1",
  "contractName": "NFT",
  "sourceName": "contracts/NFT.sol",
  "abi": [
    {
      "inputs": [],
      "stateMutability": "nonpayable",
      "type": "constructor"
    },
    {
      "anonymous": false,
      "inputs": [
        {
          "indexed": true,
          "internalType": "address",
          "name": "owner",
          "type": "address"
        },
        {
          "indexed": true,
          "internalType": "address",
          "name": "approved",
          "type": "address"
        },
        {
          "indexed": true,
          "internalType": "uint256",
          "name": "tokenId",
          "type": "uint256"
        }
      ],
      "name": "Approval",
      "type": "event"
    },
    {
      "anonymous": false,
      "inputs": [
        {
          "indexed": true,
          "internalType": "address",
          "name": "owner",
          "type": "address"
        },
        {
          "indexed": true,
          "internalType": "address",
          "name": "operator",
          "type": "address"
        },
        {
          "indexed": false,
          "internalType": "bool",
          "name": "approved",
          "type": "bool"
        }
      ],
      "name": "ApprovalForAll",
      "type": "event"
    },
    {
      "anonymous": false,
      "inputs": [
        {
          "indexed": false,
          "internalType": "address",
          "name": "sender",
          "type": "address"
        },
        {
          "indexed": false,
          "internalType": "uint256",
          "name": "tokenId",
          "type": "uint256"
        }
      ],
      "name": "NFTMinted",
      "type": "event"
    },
    {
      "anonymous": false,
      "inputs": [
        {
          "indexed": true,
          "internalType": "address",
          "name": "from",
          "type": "address"
        },
        {
          "indexed": true,
          "internalType": "address",
          "name": "to",
          "type": "address"
        },
        {
          "indexed": true,
          "internalType": "uint256",
          "name": "tokenId",
          "type": "uint256"
        }
      ],
      "name": "Transfer",
      "type": "event"
    },
    {
      "inputs": [
        {
          "internalType": "address",
          "name": "to",
          "type": "address"
        },
        {
          "internalType": "uint256",
          "name": "tokenId",
          "type": "uint256"
        }
      ],
      "name": "approve",
      "outputs": [],
      "stateMutability": "nonpayable",
      "type": "function"
    },
    {
      "inputs": [
        {
          "internalType": "address",
          "name": "owner",
          "type": "address"
        }
      ],
      "name": "balanceOf",
      "outputs": [
        {
          "internalType": "uint256",
          "name": "",
          "type": "uint256"
        }
      ],
      "stateMutability": "view",
      "type": "function"
    },
    {
      "inputs": [
        {
          "internalType": "uint256",
          "name": "tokenId",
          "type": "uint256"
        }
      ],
      "name": "getApproved",
      "outputs": [
        {
          "internalType": "address",
          "name": "",
          "type": "address"
        }
      ],
      "stateMutability": "view",
      "type": "function"
    },
    {
      "inputs": [],
      "name": "getNFTHolder",
      "outputs": [
        {
          "internalType": "string",
          "name": "",
          "type": "string"
        }
      ],
      "stateMutability": "view",
      "type": "function"
    },
    {
      "inputs": [
        {
          "internalType": "string",
          "name": "message",
          "type": "string"
        }
      ],
      "name": "getSigner",
      "outputs": [
        {
          "internalType": "address",
          "name": "",
          "type": "address"
        }
      ],
      "stateMutability": "view",
      "type": "function"
    },
    {
      "inputs": [
        {
          "internalType": "address",
          "name": "owner",
          "type": "address"
        },
        {
          "internalType": "address",
          "name": "operator",
          "type": "address"
        }
      ],
      "name": "isApprovedForAll",
      "outputs": [
        {
          "internalType": "bool",
          "name": "",
          "type": "bool"
        }
      ],
      "stateMutability": "view",
      "type": "function"
    },
    {
      "inputs": [
        {
          "internalType": "string",
          "name": "",
          "type": "string"
        }
      ],
      "name": "messages",
      "outputs": [
        {
          "internalType": "address",
          "name": "",
          "type": "address"
        }
      ],
      "stateMutability": "view",
      "type": "function"
    },
    {
      "inputs": [
        {
          "internalType": "string",
          "name": "message",
          "type": "string"
        }
      ],
      "name": "mintNFT",
      "outputs": [],
      "stateMutability": "nonpayable",
      "type": "function"
    },
    {
      "inputs": [],
      "name": "name",
      "outputs": [
        {
          "internalType": "string",
          "name": "",
          "type": "string"
        }
      ],
      "stateMutability": "view",
      "type": "function"
    },
    {
      "inputs": [
        {
          "internalType": "address",
          "name": "",
          "type": "address"
        }
      ],
      "name": "nftHolders",
      "outputs": [
        {
          "internalType": "uint256",
          "name": "",
          "type": "uint256"
        }
      ],
      "stateMutability": "view",
      "type": "function"
    },
    {
      "inputs": [
        {
          "internalType": "uint256",
          "name": "tokenId",
          "type": "uint256"
        }
      ],
      "name": "ownerOf",
      "outputs": [
        {
          "internalType": "address",
          "name": "",
          "type": "address"
        }
      ],
      "stateMutability": "view",
      "type": "function"
    },
    {
      "inputs": [
        {
          "internalType": "address",
          "name": "from",
          "type": "address"
        },
        {
          "internalType": "address",
          "name": "to",
          "type": "address"
        },
        {
          "internalType": "uint256",
          "name": "tokenId",
          "type": "uint256"
        }
      ],
      "name": "safeTransferFrom",
      "outputs": [],
      "stateMutability": "nonpayable",
      "type": "function"
    },
    {
      "inputs": [
        {
          "internalType": "address",
          "name": "from",
          "type": "address"
        },
        {
          "internalType": "address",
          "name": "to",
          "type": "address"
        },
        {
          "internalType": "uint256",
          "name": "tokenId",
          "type": "uint256"
        },
        {
          "internalType": "bytes",
          "name": "_data",
          "type": "bytes"
        }
      ],
      "name": "safeTransferFrom",
      "outputs": [],
      "stateMutability": "nonpayable",
      "type": "function"
    },
    {
      "inputs": [
        {
          "internalType": "address",
          "name": "operator",
          "type": "address"
        },
        {
          "internalType": "bool",
          "name": "approved",
          "type": "bool"
        }
      ],
      "name": "setApprovalForAll",
      "outputs": [],
      "stateMutability": "nonpayable",
      "type": "function"
    },
    {
      "inputs": [
        {
          "internalType": "string",
          "name": "message",
          "type": "string"
        }
      ],
      "name": "signMessage",
      "outputs": [],
      "stateMutability": "nonpayable",
      "type": "function"
    },
    {
      "inputs": [
        {
          "internalType": "bytes4",
          "name": "interfaceId",
          "type": "bytes4"
        }
      ],
      "name": "supportsInterface",
      "outputs": [
        {
          "internalType": "bool",
          "name": "",
          "type": "bool"
        }
      ],
      "stateMutability": "view",
      "type": "function"
    },
    {
      "inputs": [],
      "name": "symbol",
      "outputs": [
        {
          "internalType": "string",
          "name": "",
          "type": "string"
        }
      ],
      "stateMutability": "view",
      "type": "function"
    },
    {
      "inputs": [],
      "name": "tld",
      "outputs": [
        {
          "internalType": "string",
          "name": "",
          "type": "string"
        }
      ],
      "stateMutability": "view",
      "type": "function"
    },
    {
      "inputs": [
        {
          "internalType": "uint256",
          "name": "tokenId",
          "type": "uint256"
        }
      ],
      "name": "tokenURI",
      "outputs": [
        {
          "internalType": "string",
          "name": "",
          "type": "string"
        }
      ],
      "stateMutability": "view",
      "type": "function"
    },
    {
      "inputs": [
        {
          "internalType": "address",
          "name": "from",
          "type": "address"
        },
        {
          "internalType": "address",
          "name": "to",
          "type": "address"
        },
        {
          "internalType": "uint256",
          "name": "tokenId",
          "type": "uint256"
        }
      ],
      "name": "transferFrom",
      "outputs": [],
      "stateMutability": "nonpayable",
      "type": "function"
    }
  ],
  "bytecode": "0x6080604052604051806108a00160405280610877815260200162004026610877913960099080519060200190620000389291906200027f565b506040518060400160405280600d81526020017f3c2f746578743e3c2f7376673e00000000000000000000000000000000000000815250600a9080519060200190620000869291906200027f565b503480156200009457600080fd5b506040518060400160405280600781526020017f4d657373616765000000000000000000000000000000000000000000000000008152506040518060400160405280600381526020017f4d534700000000000000000000000000000000000000000000000000000000008152508160009080519060200190620001199291906200027f565b508060019080519060200190620001329291906200027f565b505050620001806040518060400160405280601581526020017f54484953204953204d59204e4654204d494e54455200000000000000000000008152506200019d60201b620010f71760201c565b6200019760076200024060201b620011901760201c565b6200045c565b6200023d81604051602401620001b4919062000370565b6040516020818303038152906040527f41304fac000000000000000000000000000000000000000000000000000000007bffffffffffffffffffffffffffffffffffffffffffffffffffffffff19166020820180517bffffffffffffffffffffffffffffffffffffffffffffffffffffffff83818316178352505050506200025660201b60201c565b50565b6001816000016000828254019250508190555050565b60008151905060006a636f6e736f6c652e6c6f679050602083016000808483855afa5050505050565b8280546200028d90620003e6565b90600052602060002090601f016020900481019282620002b15760008555620002fd565b82601f10620002cc57805160ff1916838001178555620002fd565b82800160010185558215620002fd579182015b82811115620002fc578251825591602001919060010190620002df565b5b5090506200030c919062000310565b5090565b5b808211156200032b57600081600090555060010162000311565b5090565b60006200033c8262000394565b6200034881856200039f565b93506200035a818560208601620003b0565b62000365816200044b565b840191505092915050565b600060208201905081810360008301526200038c81846200032f565b905092915050565b600081519050919050565b600082825260208201905092915050565b60005b83811015620003d0578082015181840152602081019050620003b3565b83811115620003e0576000848401525b50505050565b60006002820490506001821680620003ff57607f821691505b602082108114156200041657620004156200041c565b5b50919050565b7f4e487b7100000000000000000000000000000000000000000000000000000000600052602260045260246000fd5b6000601f19601f8301169050919050565b613bba806200046c6000396000f3fe608060405234801561001057600080fd5b506004361061012c5760003560e01c806368d62323116100ad578063a22cb46511610071578063a22cb46514610369578063b88d4fde14610385578063c87b56dd146103a1578063e985e9c5146103d1578063fb37e883146104015761012c565b806368d62323146102b157806370a08231146102cf5780637229a894146102ff5780637df124a11461031b57806395d89b411461034b5761012c565b806323b872dd116100f457806323b872dd146101fb5780632d55143214610217578063385c828c1461023557806342842e0e146102655780636352211e146102815761012c565b806301ffc9a71461013157806306fdde0314610161578063081812fc1461017f578063095ea7b3146101af578063119750d8146101cb575b600080fd5b61014b60048036038101906101469190612777565b61041d565b6040516101589190612e82565b60405180910390f35b6101696104ff565b6040516101769190612e9d565b60405180910390f35b6101996004803603810190610194919061284f565b610591565b6040516101a69190612df2565b60405180910390f35b6101c960048036038101906101c4919061273b565b610616565b005b6101e560048036038101906101e091906127c9565b61072e565b6040516101f29190612df2565b60405180910390f35b61021560048036038101906102109190612635565b610779565b005b61021f6107d9565b60405161022c9190612e9d565b60405180910390f35b61024f600480360381019061024a919061280e565b610867565b60405161025c9190612df2565b60405180910390f35b61027f600480360381019061027a9190612635565b6108b0565b005b61029b6004803603810190610296919061284f565b6108d0565b6040516102a89190612df2565b60405180910390f35b6102b9610982565b6040516102c69190612e9d565b60405180910390f35b6102e960048036038101906102e491906125d0565b610a6a565b6040516102f691906130df565b60405180910390f35b6103196004803603810190610314919061280e565b610b22565b005b610335600480360381019061033091906125d0565b610b82565b60405161034291906130df565b60405180910390f35b610353610b9a565b6040516103609190612e9d565b60405180910390f35b610383600480360381019061037e91906126ff565b610c2c565b005b61039f600480360381019061039a9190612684565b610c42565b005b6103bb60048036038101906103b6919061284f565b610ca4565b6040516103c89190612e9d565b60405180910390f35b6103eb60048036038101906103e691906125f9565b610df6565b6040516103f89190612e82565b60405180910390f35b61041b6004803603810190610416919061280e565b610e8a565b005b60007f80ac58cd000000000000000000000000000000000000000000000000000000007bffffffffffffffffffffffffffffffffffffffffffffffffffffffff1916827bffffffffffffffffffffffffffffffffffffffffffffffffffffffff191614806104e857507f5b5e139f000000000000000000000000000000000000000000000000000000007bffffffffffffffffffffffffffffffffffffffffffffffffffffffff1916827bffffffffffffffffffffffffffffffffffffffffffffffffffffffff1916145b806104f857506104f7826111a6565b5b9050919050565b60606000805461050e906133a4565b80601f016020809104026020016040519081016040528092919081815260200182805461053a906133a4565b80156105875780601f1061055c57610100808354040283529160200191610587565b820191906000526020600020905b81548152906001019060200180831161056a57829003601f168201915b5050505050905090565b600061059c82611210565b6105db576040517f08c379a00000000000000000000000000000000000000000000000000000000081526004016105d29061303f565b60405180910390fd5b6004600083815260200190815260200160002060009054906101000a900473ffffffffffffffffffffffffffffffffffffffff169050919050565b6000610621826108d0565b90508073ffffffffffffffffffffffffffffffffffffffff168373ffffffffffffffffffffffffffffffffffffffff161415610692576040517f08c379a00000000000000000000000000000000000000000000000000000000081526004016106899061307f565b60405180910390fd5b8073ffffffffffffffffffffffffffffffffffffffff166106b161127c565b73ffffffffffffffffffffffffffffffffffffffff1614806106e057506106df816106da61127c565b610df6565b5b61071f576040517f08c379a000000000000000000000000000000000000000000000000000000000815260040161071690612f7f565b60405180910390fd5b6107298383611284565b505050565b6000600b8383604051610742929190612cee565b908152602001604051809103902060009054906101000a900473ffffffffffffffffffffffffffffffffffffffff16905092915050565b61078a61078461127c565b8261133d565b6107c9576040517f08c379a00000000000000000000000000000000000000000000000000000000081526004016107c09061309f565b60405180910390fd5b6107d483838361141b565b505050565b600880546107e6906133a4565b80601f0160208091040260200160405190810160405280929190818152602001828054610812906133a4565b801561085f5780601f106108345761010080835404028352916020019161085f565b820191906000526020600020905b81548152906001019060200180831161084257829003601f168201915b505050505081565b600b818051602081018201805184825260208301602085012081835280955050505050506000915054906101000a900473ffffffffffffffffffffffffffffffffffffffff1681565b6108cb83838360405180602001604052806000815250610c42565b505050565b6000806002600084815260200190815260200160002060009054906101000a900473ffffffffffffffffffffffffffffffffffffffff169050600073ffffffffffffffffffffffffffffffffffffffff168173ffffffffffffffffffffffffffffffffffffffff161415610979576040517f08c379a000000000000000000000000000000000000000000000000000000000815260040161097090612fbf565b60405180910390fd5b80915050919050565b60606000600c60003373ffffffffffffffffffffffffffffffffffffffff1673ffffffffffffffffffffffffffffffffffffffff168152602001908152602001600020549050600d600082815260200190815260200160002080546109e6906133a4565b80601f0160208091040260200160405190810160405280929190818152602001828054610a12906133a4565b8015610a5f5780601f10610a3457610100808354040283529160200191610a5f565b820191906000526020600020905b815481529060010190602001808311610a4257829003601f168201915b505050505091505090565b60008073ffffffffffffffffffffffffffffffffffffffff168273ffffffffffffffffffffffffffffffffffffffff161415610adb576040517f08c379a0000000000000000000000000000000000000000000000000000000008152600401610ad290612f9f565b60405180910390fd5b600360008373ffffffffffffffffffffffffffffffffffffffff1673ffffffffffffffffffffffffffffffffffffffff168152602001908152602001600020549050919050565b33600b82604051610b339190612d07565b908152602001604051809103902060006101000a81548173ffffffffffffffffffffffffffffffffffffffff021916908373ffffffffffffffffffffffffffffffffffffffff16021790555050565b600c6020528060005260406000206000915090505481565b606060018054610ba9906133a4565b80601f0160208091040260200160405190810160405280929190818152602001828054610bd5906133a4565b8015610c225780601f10610bf757610100808354040283529160200191610c22565b820191906000526020600020905b815481529060010190602001808311610c0557829003601f168201915b5050505050905090565b610c3e610c3761127c565b8383611682565b5050565b610c53610c4d61127c565b8361133d565b610c92576040517f08c379a0000000000000000000000000000000000000000000000000000000008152600401610c899061309f565b60405180910390fd5b610c9e848484846117ef565b50505050565b6060610caf82611210565b610cee576040517f08c379a0000000000000000000000000000000000000000000000000000000008152600401610ce59061301f565b60405180910390fd5b6000600660008481526020019081526020016000208054610d0e906133a4565b80601f0160208091040260200160405190810160405280929190818152602001828054610d3a906133a4565b8015610d875780601f10610d5c57610100808354040283529160200191610d87565b820191906000526020600020905b815481529060010190602001808311610d6a57829003601f168201915b505050505090506000610d9861184b565b9050600081511415610dae578192505050610df1565b600082511115610de3578082604051602001610dcb929190612d1e565b60405160208183030381529060405292505050610df1565b610dec84611862565b925050505b919050565b6000600560008473ffffffffffffffffffffffffffffffffffffffff1673ffffffffffffffffffffffffffffffffffffffff16815260200190815260200160002060008373ffffffffffffffffffffffffffffffffffffffff1673ffffffffffffffffffffffffffffffffffffffff16815260200190815260200160002060009054906101000a900460ff16905092915050565b610ed1600b82604051610e9d9190612d07565b908152602001604051809103902060009054906101000a900473ffffffffffffffffffffffffffffffffffffffff16611909565b3373ffffffffffffffffffffffffffffffffffffffff16600b82604051610ef89190612d07565b908152602001604051809103902060009054906101000a900473ffffffffffffffffffffffffffffffffffffffff1673ffffffffffffffffffffffffffffffffffffffff1614610f7d576040517f08c379a0000000000000000000000000000000000000000000000000000000008152600401610f74906130bf565b60405180910390fd5b6000600982600a604051602001610f9693929190612d42565b60405160208183030381529060405290506000610fb360076119a2565b90506000610fc0846119b0565b90506000610fcd82611b8b565b9050600061100586610fde87611d38565b84604051602001610ff193929190612d73565b604051602081830303815290604052611d38565b905060008160405160200161101a9190612dd0565b60405160208183030381529060405290506110353386611ef6565b61103f8582611f14565b80600d600087815260200190815260200160002090805190602001906110669291906123aa565b5084600c60003373ffffffffffffffffffffffffffffffffffffffff1673ffffffffffffffffffffffffffffffffffffffff168152602001908152602001600020819055506110b56007611190565b7f4cc0a9c4a99ddc700de1af2c9f916a7cbfdb71f14801ccff94061ad1ef8a804033866040516110e6929190612e59565b60405180910390a150505050505050565b61118d8160405160240161110b9190612e9d565b6040516020818303038152906040527f41304fac000000000000000000000000000000000000000000000000000000007bffffffffffffffffffffffffffffffffffffffffffffffffffffffff19166020820180517bffffffffffffffffffffffffffffffffffffffffffffffffffffffff8381831617835250505050611f88565b50565b6001816000016000828254019250508190555050565b60007f01ffc9a7000000000000000000000000000000000000000000000000000000007bffffffffffffffffffffffffffffffffffffffffffffffffffffffff1916827bffffffffffffffffffffffffffffffffffffffffffffffffffffffff1916149050919050565b60008073ffffffffffffffffffffffffffffffffffffffff166002600084815260200190815260200160002060009054906101000a900473ffffffffffffffffffffffffffffffffffffffff1673ffffffffffffffffffffffffffffffffffffffff1614159050919050565b600033905090565b816004600083815260200190815260200160002060006101000a81548173ffffffffffffffffffffffffffffffffffffffff021916908373ffffffffffffffffffffffffffffffffffffffff160217905550808273ffffffffffffffffffffffffffffffffffffffff166112f7836108d0565b73ffffffffffffffffffffffffffffffffffffffff167f8c5be1e5ebec7d5bd14f71427d1e84f3dd0314c0f7b2291e5b200ac8c7c3b92560405160405180910390a45050565b600061134882611210565b611387576040517f08c379a000000000000000000000000000000000000000000000000000000000815260040161137e90612f5f565b60405180910390fd5b6000611392836108d0565b90508073ffffffffffffffffffffffffffffffffffffffff168473ffffffffffffffffffffffffffffffffffffffff1614806113d457506113d38185610df6565b5b8061141257508373ffffffffffffffffffffffffffffffffffffffff166113fa84610591565b73ffffffffffffffffffffffffffffffffffffffff16145b91505092915050565b8273ffffffffffffffffffffffffffffffffffffffff1661143b826108d0565b73ffffffffffffffffffffffffffffffffffffffff1614611491576040517f08c379a000000000000000000000000000000000000000000000000000000000815260040161148890612edf565b60405180910390fd5b600073ffffffffffffffffffffffffffffffffffffffff168273ffffffffffffffffffffffffffffffffffffffff161415611501576040517f08c379a00000000000000000000000000000000000000000000000000000000081526004016114f890612f1f565b60405180910390fd5b61150c838383611fb1565b611517600082611284565b6001600360008573ffffffffffffffffffffffffffffffffffffffff1673ffffffffffffffffffffffffffffffffffffffff168152602001908152602001600020600082825461156791906132ba565b925050819055506001600360008473ffffffffffffffffffffffffffffffffffffffff1673ffffffffffffffffffffffffffffffffffffffff16815260200190815260200160002060008282546115be91906131d9565b92505081905550816002600083815260200190815260200160002060006101000a81548173ffffffffffffffffffffffffffffffffffffffff021916908373ffffffffffffffffffffffffffffffffffffffff160217905550808273ffffffffffffffffffffffffffffffffffffffff168473ffffffffffffffffffffffffffffffffffffffff167fddf252ad1be2c89b69c2b068fc378daa952ba7f163c4a11628f55a4df523b3ef60405160405180910390a461167d838383611fb6565b505050565b8173ffffffffffffffffffffffffffffffffffffffff168373ffffffffffffffffffffffffffffffffffffffff1614156116f1576040517f08c379a00000000000000000000000000000000000000000000000000000000081526004016116e890612f3f565b60405180910390fd5b80600560008573ffffffffffffffffffffffffffffffffffffffff1673ffffffffffffffffffffffffffffffffffffffff16815260200190815260200160002060008473ffffffffffffffffffffffffffffffffffffffff1673ffffffffffffffffffffffffffffffffffffffff16815260200190815260200160002060006101000a81548160ff0219169083151502179055508173ffffffffffffffffffffffffffffffffffffffff168373ffffffffffffffffffffffffffffffffffffffff167f17307eab39ab6107e8899845ad3d59bd9653f200f220920489ca2b5937696c31836040516117e29190612e82565b60405180910390a3505050565b6117fa84848461141b565b61180684848484611fbb565b611845576040517f08c379a000000000000000000000000000000000000000000000000000000000815260040161183c90612ebf565b60405180910390fd5b50505050565b606060405180602001604052806000815250905090565b606061186d82611210565b6118ac576040517f08c379a00000000000000000000000000000000000000000000000000000000081526004016118a39061305f565b60405180910390fd5b60006118b661184b565b905060008151116118d65760405180602001604052806000815250611901565b806118e084611b8b565b6040516020016118f1929190612d1e565b6040516020818303038152906040525b915050919050565b61199f8160405160240161191d9190612df2565b6040516020818303038152906040527f2c2ecbc2000000000000000000000000000000000000000000000000000000007bffffffffffffffffffffffffffffffffffffffffffffffffffffffff19166020820180517bffffffffffffffffffffffffffffffffffffffffffffffffffffffff8381831617835250505050611f88565b50565b600081600001549050919050565b60008060008084519050600092505b80821015611b80576000858381518110611a02577f4e487b7100000000000000000000000000000000000000000000000000000000600052603260045260246000fd5b602001015160f81c60f81b9050608060f81b817effffffffffffffffffffffffffffffffffffffffffffffffffffffffffffff19161015611a5157600183611a4a91906131d9565b9250611b6c565b60e060f81b817effffffffffffffffffffffffffffffffffffffffffffffffffffffffffffff19161015611a9357600283611a8c91906131d9565b9250611b6b565b60f060f81b817effffffffffffffffffffffffffffffffffffffffffffffffffffffffffffff19161015611ad557600383611ace91906131d9565b9250611b6a565b60f8801b817effffffffffffffffffffffffffffffffffffffffffffffffffffffffffffff19161015611b1657600483611b0f91906131d9565b9250611b69565b60fc60f81b817effffffffffffffffffffffffffffffffffffffffffffffffffffffffffffff19161015611b5857600583611b5191906131d9565b9250611b68565b600683611b6591906131d9565b92505b5b5b5b5b508280611b7890613407565b9350506119bf565b829350505050919050565b60606000821415611bd3576040518060400160405280600181526020017f30000000000000000000000000000000000000000000000000000000000000008152509050611d33565b600082905060005b60008214611c05578080611bee90613407565b915050600a82611bfe919061322f565b9150611bdb565b60008167ffffffffffffffff811115611c47577f4e487b7100000000000000000000000000000000000000000000000000000000600052604160045260246000fd5b6040519080825280601f01601f191660200182016040528015611c795781602001600182028036833780820191505090505b5090505b60008514611d2c57600182611c9291906132ba565b9150600a85611ca19190613450565b6030611cad91906131d9565b60f81b818381518110611ce9577f4e487b7100000000000000000000000000000000000000000000000000000000600052603260045260246000fd5b60200101907effffffffffffffffffffffffffffffffffffffffffffffffffffffffffffff1916908160001a905350600a85611d25919061322f565b9450611c7d565b8093505050505b919050565b60606000825190506000811415611d615760405180602001604052806000815250915050611ef1565b60006003600283611d7291906131d9565b611d7c919061322f565b6004611d889190613260565b90506000602082611d9991906131d9565b67ffffffffffffffff811115611dd8577f4e487b7100000000000000000000000000000000000000000000000000000000600052604160045260246000fd5b6040519080825280601f01601f191660200182016040528015611e0a5781602001600182028036833780820191505090505b5090506000604051806060016040528060408152602001613b45604091399050600181016020830160005b86811015611eae5760038101905062ffffff818a015116603f8160121c168401518060081b905060ff603f83600c1c1686015116810190508060081b905060ff603f8360061c1686015116810190508060081b905060ff603f831686015116810190508060e01b90508084526004840193505050611e35565b506003860660018114611ec85760028114611ed857611ee3565b613d3d60f01b6002830352611ee3565b603d60f81b60018303525b508484525050819450505050505b919050565b611f10828260405180602001604052806000815250612152565b5050565b611f1d82611210565b611f5c576040517f08c379a0000000000000000000000000000000000000000000000000000000008152600401611f5390612fdf565b60405180910390fd5b80600660008481526020019081526020016000209080519060200190611f839291906123aa565b505050565b60008151905060006a636f6e736f6c652e6c6f679050602083016000808483855afa5050505050565b505050565b505050565b6000611fdc8473ffffffffffffffffffffffffffffffffffffffff166121ad565b15612145578373ffffffffffffffffffffffffffffffffffffffff1663150b7a0261200561127c565b8786866040518563ffffffff1660e01b81526004016120279493929190612e0d565b602060405180830381600087803b15801561204157600080fd5b505af192505050801561207257506040513d601f19601f8201168201806040525081019061206f91906127a0565b60015b6120f5573d80600081146120a2576040519150601f19603f3d011682016040523d82523d6000602084013e6120a7565b606091505b506000815114156120ed576040517f08c379a00000000000000000000000000000000000000000000000000000000081526004016120e490612ebf565b60405180910390fd5b805181602001fd5b63150b7a0260e01b7bffffffffffffffffffffffffffffffffffffffffffffffffffffffff1916817bffffffffffffffffffffffffffffffffffffffffffffffffffffffff19161491505061214a565b600190505b949350505050565b61215c83836121d0565b6121696000848484611fbb565b6121a8576040517f08c379a000000000000000000000000000000000000000000000000000000000815260040161219f90612ebf565b60405180910390fd5b505050565b6000808273ffffffffffffffffffffffffffffffffffffffff163b119050919050565b600073ffffffffffffffffffffffffffffffffffffffff168273ffffffffffffffffffffffffffffffffffffffff161415612240576040517f08c379a000000000000000000000000000000000000000000000000000000000815260040161223790612fff565b60405180910390fd5b61224981611210565b15612289576040517f08c379a000000000000000000000000000000000000000000000000000000000815260040161228090612eff565b60405180910390fd5b61229560008383611fb1565b6001600360008473ffffffffffffffffffffffffffffffffffffffff1673ffffffffffffffffffffffffffffffffffffffff16815260200190815260200160002060008282546122e591906131d9565b92505081905550816002600083815260200190815260200160002060006101000a81548173ffffffffffffffffffffffffffffffffffffffff021916908373ffffffffffffffffffffffffffffffffffffffff160217905550808273ffffffffffffffffffffffffffffffffffffffff16600073ffffffffffffffffffffffffffffffffffffffff167fddf252ad1be2c89b69c2b068fc378daa952ba7f163c4a11628f55a4df523b3ef60405160405180910390a46123a660008383611fb6565b5050565b8280546123b6906133a4565b90600052602060002090601f0160209004810192826123d8576000855561241f565b82601f106123f157805160ff191683800117855561241f565b8280016001018555821561241f579182015b8281111561241e578251825591602001919060010190612403565b5b50905061242c9190612430565b5090565b5b80821115612449576000816000905550600101612431565b5090565b600061246061245b8461311f565b6130fa565b90508281526020810184848401111561247857600080fd5b612483848285613362565b509392505050565b600061249e61249984613150565b6130fa565b9050828152602081018484840111156124b657600080fd5b6124c1848285613362565b509392505050565b6000813590506124d881613ae8565b92915050565b6000813590506124ed81613aff565b92915050565b60008135905061250281613b16565b92915050565b60008151905061251781613b16565b92915050565b600082601f83011261252e57600080fd5b813561253e84826020860161244d565b91505092915050565b60008083601f84011261255957600080fd5b8235905067ffffffffffffffff81111561257257600080fd5b60208301915083600182028301111561258a57600080fd5b9250929050565b600082601f8301126125a257600080fd5b81356125b284826020860161248b565b91505092915050565b6000813590506125ca81613b2d565b92915050565b6000602082840312156125e257600080fd5b60006125f0848285016124c9565b91505092915050565b6000806040838503121561260c57600080fd5b600061261a858286016124c9565b925050602061262b858286016124c9565b9150509250929050565b60008060006060848603121561264a57600080fd5b6000612658868287016124c9565b9350506020612669868287016124c9565b925050604061267a868287016125bb565b9150509250925092565b6000806000806080858703121561269a57600080fd5b60006126a8878288016124c9565b94505060206126b9878288016124c9565b93505060406126ca878288016125bb565b925050606085013567ffffffffffffffff8111156126e757600080fd5b6126f38782880161251d565b91505092959194509250565b6000806040838503121561271257600080fd5b6000612720858286016124c9565b9250506020612731858286016124de565b9150509250929050565b6000806040838503121561274e57600080fd5b600061275c858286016124c9565b925050602061276d858286016125bb565b9150509250929050565b60006020828403121561278957600080fd5b6000612797848285016124f3565b91505092915050565b6000602082840312156127b257600080fd5b60006127c084828501612508565b91505092915050565b600080602083850312156127dc57600080fd5b600083013567ffffffffffffffff8111156127f657600080fd5b61280285828601612547565b92509250509250929050565b60006020828403121561282057600080fd5b600082013567ffffffffffffffff81111561283a57600080fd5b61284684828501612591565b91505092915050565b60006020828403121561286157600080fd5b600061286f848285016125bb565b91505092915050565b612881816132ee565b82525050565b61289081613300565b82525050565b60006128a182613196565b6128ab81856131ac565b93506128bb818560208601613371565b6128c48161353d565b840191505092915050565b60006128db83856131ce565b93506128e8838584613362565b82840190509392505050565b60006128ff826131a1565b61290981856131bd565b9350612919818560208601613371565b6129228161353d565b840191505092915050565b6000612938826131a1565b61294281856131ce565b9350612952818560208601613371565b80840191505092915050565b6000815461296b816133a4565b61297581866131ce565b9450600182166000811461299057600181146129a1576129d4565b60ff198316865281860193506129d4565b6129aa85613181565b60005b838110156129cc578154818901526001820191506020810190506129ad565b838801955050505b50505092915050565b60006129ea6032836131bd565b91506129f58261354e565b604082019050919050565b6000612a0d6025836131bd565b9150612a188261359d565b604082019050919050565b6000612a30601c836131bd565b9150612a3b826135ec565b602082019050919050565b6000612a536024836131bd565b9150612a5e82613615565b604082019050919050565b6000612a766019836131bd565b9150612a8182613664565b602082019050919050565b6000612a99602c836131bd565b9150612aa48261368d565b604082019050919050565b6000612abc6038836131bd565b9150612ac7826136dc565b604082019050919050565b6000612adf602a836131bd565b9150612aea8261372b565b604082019050919050565b6000612b026029836131bd565b9150612b0d8261377a565b604082019050919050565b6000612b25602e836131bd565b9150612b30826137c9565b604082019050919050565b6000612b486002836131ce565b9150612b5382613818565b600282019050919050565b6000612b6b6020836131bd565b9150612b7682613841565b602082019050919050565b6000612b8e6031836131bd565b9150612b998261386a565b604082019050919050565b6000612bb1602c836131bd565b9150612bbc826138b9565b604082019050919050565b6000612bd4602f836131bd565b9150612bdf82613908565b604082019050919050565b6000612bf7600a836131ce565b9150612c0282613957565b600a82019050919050565b6000612c1a6021836131bd565b9150612c2582613980565b604082019050919050565b6000612c3d601d836131ce565b9150612c48826139cf565b601d82019050919050565b6000612c60600c836131ce565b9150612c6b826139f8565b600c82019050919050565b6000612c836031836131bd565b9150612c8e82613a21565b604082019050919050565b6000612ca6601d836131bd565b9150612cb182613a70565b602082019050919050565b6000612cc9603a836131ce565b9150612cd482613a99565b603a82019050919050565b612ce881613358565b82525050565b6000612cfb8284866128cf565b91508190509392505050565b6000612d13828461292d565b915081905092915050565b6000612d2a828561292d565b9150612d36828461292d565b91508190509392505050565b6000612d4e828661295e565b9150612d5a828561292d565b9150612d66828461295e565b9150819050949350505050565b6000612d7e82612bea565b9150612d8a828661292d565b9150612d9582612cbc565b9150612da1828561292d565b9150612dac82612c53565b9150612db8828461292d565b9150612dc382612b3b565b9150819050949350505050565b6000612ddb82612c30565b9150612de7828461292d565b915081905092915050565b6000602082019050612e076000830184612878565b92915050565b6000608082019050612e226000830187612878565b612e2f6020830186612878565b612e3c6040830185612cdf565b8181036060830152612e4e8184612896565b905095945050505050565b6000604082019050612e6e6000830185612878565b612e7b6020830184612cdf565b9392505050565b6000602082019050612e976000830184612887565b92915050565b60006020820190508181036000830152612eb781846128f4565b905092915050565b60006020820190508181036000830152612ed8816129dd565b9050919050565b60006020820190508181036000830152612ef881612a00565b9050919050565b60006020820190508181036000830152612f1881612a23565b9050919050565b60006020820190508181036000830152612f3881612a46565b9050919050565b60006020820190508181036000830152612f5881612a69565b9050919050565b60006020820190508181036000830152612f7881612a8c565b9050919050565b60006020820190508181036000830152612f9881612aaf565b9050919050565b60006020820190508181036000830152612fb881612ad2565b9050919050565b60006020820190508181036000830152612fd881612af5565b9050919050565b60006020820190508181036000830152612ff881612b18565b9050919050565b6000602082019050818103600083015261301881612b5e565b9050919050565b6000602082019050818103600083015261303881612b81565b9050919050565b6000602082019050818103600083015261305881612ba4565b9050919050565b6000602082019050818103600083015261307881612bc7565b9050919050565b6000602082019050818103600083015261309881612c0d565b9050919050565b600060208201905081810360008301526130b881612c76565b9050919050565b600060208201905081810360008301526130d881612c99565b9050919050565b60006020820190506130f46000830184612cdf565b92915050565b6000613104613115565b905061311082826133d6565b919050565b6000604051905090565b600067ffffffffffffffff82111561313a5761313961350e565b5b6131438261353d565b9050602081019050919050565b600067ffffffffffffffff82111561316b5761316a61350e565b5b6131748261353d565b9050602081019050919050565b60008190508160005260206000209050919050565b600081519050919050565b600081519050919050565b600082825260208201905092915050565b600082825260208201905092915050565b600081905092915050565b60006131e482613358565b91506131ef83613358565b9250827fffffffffffffffffffffffffffffffffffffffffffffffffffffffffffffffff0382111561322457613223613481565b5b828201905092915050565b600061323a82613358565b915061324583613358565b925082613255576132546134b0565b5b828204905092915050565b600061326b82613358565b915061327683613358565b9250817fffffffffffffffffffffffffffffffffffffffffffffffffffffffffffffffff04831182151516156132af576132ae613481565b5b828202905092915050565b60006132c582613358565b91506132d083613358565b9250828210156132e3576132e2613481565b5b828203905092915050565b60006132f982613338565b9050919050565b60008115159050919050565b60007fffffffff0000000000000000000000000000000000000000000000000000000082169050919050565b600073ffffffffffffffffffffffffffffffffffffffff82169050919050565b6000819050919050565b82818337600083830152505050565b60005b8381101561338f578082015181840152602081019050613374565b8381111561339e576000848401525b50505050565b600060028204905060018216806133bc57607f821691505b602082108114156133d0576133cf6134df565b5b50919050565b6133df8261353d565b810181811067ffffffffffffffff821117156133fe576133fd61350e565b5b80604052505050565b600061341282613358565b91507fffffffffffffffffffffffffffffffffffffffffffffffffffffffffffffffff82141561344557613444613481565b5b600182019050919050565b600061345b82613358565b915061346683613358565b925082613476576134756134b0565b5b828206905092915050565b7f4e487b7100000000000000000000000000000000000000000000000000000000600052601160045260246000fd5b7f4e487b7100000000000000000000000000000000000000000000000000000000600052601260045260246000fd5b7f4e487b7100000000000000000000000000000000000000000000000000000000600052602260045260246000fd5b7f4e487b7100000000000000000000000000000000000000000000000000000000600052604160045260246000fd5b6000601f19601f8301169050919050565b7f4552433732313a207472616e7366657220746f206e6f6e20455243373231526560008201527f63656976657220696d706c656d656e7465720000000000000000000000000000602082015250565b7f4552433732313a207472616e736665722066726f6d20696e636f72726563742060008201527f6f776e6572000000000000000000000000000000000000000000000000000000602082015250565b7f4552433732313a20746f6b656e20616c7265616479206d696e74656400000000600082015250565b7f4552433732313a207472616e7366657220746f20746865207a65726f2061646460008201527f7265737300000000000000000000000000000000000000000000000000000000602082015250565b7f4552433732313a20617070726f766520746f2063616c6c657200000000000000600082015250565b7f4552433732313a206f70657261746f7220717565727920666f72206e6f6e657860008201527f697374656e7420746f6b656e0000000000000000000000000000000000000000602082015250565b7f4552433732313a20617070726f76652063616c6c6572206973206e6f74206f7760008201527f6e6572206e6f7220617070726f76656420666f7220616c6c0000000000000000602082015250565b7f4552433732313a2062616c616e636520717565727920666f7220746865207a6560008201527f726f206164647265737300000000000000000000000000000000000000000000602082015250565b7f4552433732313a206f776e657220717565727920666f72206e6f6e657869737460008201527f656e7420746f6b656e0000000000000000000000000000000000000000000000602082015250565b7f45524337323155524953746f726167653a2055524920736574206f66206e6f6e60008201527f6578697374656e7420746f6b656e000000000000000000000000000000000000602082015250565b7f227d000000000000000000000000000000000000000000000000000000000000600082015250565b7f4552433732313a206d696e7420746f20746865207a65726f2061646472657373600082015250565b7f45524337323155524953746f726167653a2055524920717565727920666f722060008201527f6e6f6e6578697374656e7420746f6b656e000000000000000000000000000000602082015250565b7f4552433732313a20617070726f76656420717565727920666f72206e6f6e657860008201527f697374656e7420746f6b656e0000000000000000000000000000000000000000602082015250565b7f4552433732314d657461646174613a2055524920717565727920666f72206e6f60008201527f6e6578697374656e7420746f6b656e0000000000000000000000000000000000602082015250565b7f7b226e616d65223a202200000000000000000000000000000000000000000000600082015250565b7f4552433732313a20617070726f76616c20746f2063757272656e74206f776e6560008201527f7200000000000000000000000000000000000000000000000000000000000000602082015250565b7f646174613a6170706c69636174696f6e2f6a736f6e3b6261736536342c000000600082015250565b7f222c226c656e677468223a220000000000000000000000000000000000000000600082015250565b7f4552433732313a207472616e736665722063616c6c6572206973206e6f74206f60008201527f776e6572206e6f7220617070726f766564000000000000000000000000000000602082015250565b7f5573657220646964206e6f7420686176652061207369676e6174757265000000600082015250565b7f222c20226465736372697074696f6e223a2022222c2022696d616765223a202260008201527f646174613a696d6167652f7376672b786d6c3b6261736536342c000000000000602082015250565b613af1816132ee565b8114613afc57600080fd5b50565b613b0881613300565b8114613b1357600080fd5b50565b613b1f8161330c565b8114613b2a57600080fd5b50565b613b3681613358565b8114613b4157600080fd5b5056fe4142434445464748494a4b4c4d4e4f505152535455565758595a6162636465666768696a6b6c6d6e6f707172737475767778797a303132333435363738392b2fa2646970667358221220dfe11f2d90037f4657fc46c677de7e93b8de16b7970fe22d08383b663d6b151c64736f6c634300080400333c73766720786d6c6e733d22687474703a2f2f7777772e77332e6f72672f323030302f737667222077696474683d2232373022206865696768743d22323730222066696c6c3d226e6f6e65223e3c706174682066696c6c3d2275726c282342292220643d224d302030683237307632373048307a222f3e3c646566733e3c66696c7465722069643d22412220636f6c6f722d696e746572706f6c6174696f6e2d66696c746572733d2273524742222066696c746572556e6974733d227573657253706163654f6e55736522206865696768743d22323730222077696474683d22323730223e3c666544726f70536861646f772064783d2230222064793d22312220737464446576696174696f6e3d22322220666c6f6f642d6f7061636974793d222e323235222077696474683d223230302522206865696768743d2232303025222f3e3c2f66696c7465723e3c2f646566733e3c7061746820643d224d37322e3836332034322e393439632d2e3636382d2e3338372d312e3432362d2e35392d322e3139372d2e3539732d312e3532392e3230342d322e3139372e35396c2d31302e30383120362e3033322d362e383520332e3933342d31302e30383120362e303332632d2e3636382e3338372d312e3432362e35392d322e3139372e3539732d312e3532392d2e3230342d322e3139372d2e35396c2d382e3031332d342e37323161342e353220342e35322030203020312d312e3538392d312e363136632d2e3338342d2e3636352d2e3539342d312e3431382d2e3630382d322e313837762d392e3331632d2e3031332d2e3737352e3138352d312e3533382e3537322d322e32303861342e323520342e323520302030203120312e3632352d312e3539356c372e3838342d342e3539632e3636382d2e33383720312e3432362d2e353920322e3139372d2e353973312e3532392e32303420322e3139372e35396c372e38383420342e353961342e353220342e353220302030203120312e35383920312e363136632e3338342e3636352e35393420312e3431382e36303820322e31383776362e3033326c362e38352d342e303635762d362e303332632e3031332d2e3737352d2e3138352d312e3533382d2e3537322d322e32303861342e323520342e32352030203020302d312e3632352d312e3539354c34312e3435362032342e3539632d2e3636382d2e3338372d312e3432362d2e35392d322e3139372d2e3539732d312e3532392e3230342d322e3139372e35396c2d31342e38363420382e36353561342e323520342e32352030203020302d312e36323520312e353935632d2e3338372e36372d2e35383520312e3433342d2e35373220322e3230387631372e343431632d2e3031332e3737352e31383520312e3533382e35373220322e32303861342e323520342e323520302030203020312e36323520312e3539356c31342e38363420382e363535632e3636382e33383720312e3432362e353920322e3139372e353973312e3532392d2e32303420322e3139372d2e35396c31302e3038312d352e39303120362e38352d342e3036352031302e3038312d352e393031632e3636382d2e33383720312e3432362d2e353920322e3139372d2e353973312e3532392e32303420322e3139372e35396c372e38383420342e353961342e353220342e353220302030203120312e35383920312e363136632e3338342e3636352e35393420312e3431382e36303820322e31383776392e333131632e3031332e3737352d2e31383520312e3533382d2e35373220322e32303861342e323520342e32352030203020312d312e36323520312e3539356c2d372e38383420342e373231632d2e3636382e3338372d312e3432362e35392d322e3139372e3539732d312e3532392d2e3230342d322e3139372d2e35396c2d372e3838342d342e353961342e353220342e35322030203020312d312e3538392d312e363136632d2e3338352d2e3636352d2e3539342d312e3431382d2e3630382d322e313837762d362e3033326c2d362e383520342e30363576362e303332632d2e3031332e3737352e31383520312e3533382e35373220322e32303861342e323520342e323520302030203020312e36323520312e3539356c31342e38363420382e363535632e3636382e33383720312e3432362e353920322e3139372e353973312e3532392d2e32303420322e3139372d2e35396c31342e3836342d382e363535632e3635372d2e33393420312e3230342d2e393520312e3538392d312e363136732e3539342d312e3431382e3630392d322e3138375635352e353338632e3031332d2e3737352d2e3138352d312e3533382d2e3537322d322e32303861342e323520342e32352030203020302d312e3632352d312e3539356c2d31342e3939332d382e3738367a222066696c6c3d2223666666222f3e3c646566733e3c6c696e6561724772616469656e742069643d2242222078313d2230222079313d2230222078323d22323730222079323d2232373022206772616469656e74556e6974733d227573657253706163654f6e557365223e3c73746f702073746f702d636f6c6f723d2223636235656565222f3e3c73746f70206f66667365743d2231222073746f702d636f6c6f723d2223306364376534222073746f702d6f7061636974793d222e3939222f3e3c2f6c696e6561724772616469656e743e3c2f646566733e7468616c65732e74616c65733c7465787420783d2233322e352220793d223233312220666f6e742d73697a653d223237222066696c6c3d2223666666222066696c7465723d2275726c282341292220666f6e742d66616d696c793d22506c7573204a616b617274612053616e732c44656a6156752053616e732c4e6f746f20436f6c6f7220456d6f6a692c4170706c6520436f6c6f7220456d6f6a692c73616e732d73657269662220666f6e742d7765696768743d22626f6c64223e",
  "linkReferences": {},
  "deployedLinkReferences": {}
}